{
  "contractName": "DoctorVerification",
  "abi": [
    {
      "inputs": [],
      "stateMutability": "nonpayable",
      "type": "constructor"
    },
    {
      "anonymous": false,
      "inputs": [
        {
          "indexed": true,
          "internalType": "address",
          "name": "doctor",
          "type": "address"
        },
        {
          "indexed": false,
          "internalType": "string",
          "name": "name",
          "type": "string"
        }
      ],
      "name": "DoctorRegistered",
      "type": "event"
    },
    {
      "anonymous": false,
      "inputs": [
        {
          "indexed": true,
          "internalType": "address",
          "name": "doctor",
          "type": "address"
        },
        {
          "indexed": false,
          "internalType": "bool",
          "name": "verified",
          "type": "bool"
        }
      ],
      "name": "DoctorVerified",
      "type": "event"
    },
    {
      "inputs": [],
      "name": "admin",
      "outputs": [
        {
          "internalType": "address",
          "name": "",
          "type": "address"
        }
      ],
      "stateMutability": "view",
      "type": "function"
    },
    {
      "inputs": [
        {
          "internalType": "address",
          "name": "",
          "type": "address"
        }
      ],
      "name": "doctors",
      "outputs": [
        {
          "internalType": "string",
          "name": "name",
          "type": "string"
        },
        {
          "internalType": "string",
          "name": "specialization",
          "type": "string"
        },
        {
          "internalType": "string",
          "name": "certificateHash",
          "type": "string"
        },
        {
          "internalType": "bool",
          "name": "verified",
          "type": "bool"
        },
        {
          "internalType": "address",
          "name": "doctorAddress",
          "type": "address"
        }
      ],
      "stateMutability": "view",
      "type": "function"
    },
    {
      "inputs": [
        {
          "internalType": "string",
          "name": "_name",
          "type": "string"
        },
        {
          "internalType": "string",
          "name": "_specialization",
          "type": "string"
        },
        {
          "internalType": "string",
          "name": "_certificateHash",
          "type": "string"
        }
      ],
      "name": "registerDoctor",
      "outputs": [],
      "stateMutability": "nonpayable",
      "type": "function"
    },
    {
      "inputs": [
        {
          "internalType": "address",
          "name": "_doctor",
          "type": "address"
        },
        {
          "internalType": "bool",
          "name": "_status",
          "type": "bool"
        }
      ],
      "name": "verifyDoctor",
      "outputs": [],
      "stateMutability": "nonpayable",
      "type": "function"
    },
    {
      "inputs": [
        {
          "internalType": "address",
          "name": "_doctor",
          "type": "address"
        }
      ],
      "name": "isDoctorVerified",
      "outputs": [
        {
          "internalType": "bool",
          "name": "",
          "type": "bool"
        }
      ],
      "stateMutability": "view",
      "type": "function"
    }
  ],
  "bytecode": "0x608060405234801561000f575f80fd5b503360015f6101000a81548173ffffffffffffffffffffffffffffffffffffffff021916908373ffffffffffffffffffffffffffffffffffffffff160217905550610dd28061005d5f395ff3fe608060405234801561000f575f80fd5b5060043610610055575f3560e01c80630b13acdf146100595780631d0050721461008957806350c7a912146100a5578063a9583c22146100c1578063f851a440146100f5575b5f80fd5b610073600480360381019061006e9190610694565b610113565b60405161008091906106d9565b60405180910390f35b6100a3600480360381019061009e919061071c565b610167565b005b6100bf60048036038101906100ba9190610896565b61029e565b005b6100db60048036038101906100d69190610694565b610415565b6040516100ec9594939291906109c3565b60405180910390f35b6100fd610604565b60405161010a9190610a29565b60405180910390f35b5f805f8373ffffffffffffffffffffffffffffffffffffffff1673ffffffffffffffffffffffffffffffffffffffff1681526020019081526020015f206003015f9054906101000a900460ff169050919050565b60015f9054906101000a900473ffffffffffffffffffffffffffffffffffffffff1673ffffffffffffffffffffffffffffffffffffffff163373ffffffffffffffffffffffffffffffffffffffff16146101f6576040517f08c379a00000000000000000000000000000000000000000000000000000000081526004016101ed90610a8c565b60405180910390fd5b805f808473ffffffffffffffffffffffffffffffffffffffff1673ffffffffffffffffffffffffffffffffffffffff1681526020019081526020015f206003015f6101000a81548160ff0219169083151502179055508173ffffffffffffffffffffffffffffffffffffffff167f4aeb09b37943604dee1018732e45e286e36e7613145ba310a7774266101b4deb8260405161029291906106d9565b60405180910390a25050565b6040518060a001604052808481526020018381526020018281526020015f151581526020013373ffffffffffffffffffffffffffffffffffffffff168152505f803373ffffffffffffffffffffffffffffffffffffffff1673ffffffffffffffffffffffffffffffffffffffff1681526020019081526020015f205f820151815f01908161032c9190610cad565b5060208201518160010190816103429190610cad565b5060408201518160020190816103589190610cad565b506060820151816003015f6101000a81548160ff02191690831515021790555060808201518160030160016101000a81548173ffffffffffffffffffffffffffffffffffffffff021916908373ffffffffffffffffffffffffffffffffffffffff1602179055509050503373ffffffffffffffffffffffffffffffffffffffff167f20481b8112b5bf4734f45a473c373db9df6a79ce946cdc0e7dbc22b4f7d7f986846040516104089190610d7c565b60405180910390a2505050565b5f602052805f5260405f205f91509050805f01805461043390610ad7565b80601f016020809104026020016040519081016040528092919081815260200182805461045f90610ad7565b80156104aa5780601f10610481576101008083540402835291602001916104aa565b820191905f5260205f20905b81548152906001019060200180831161048d57829003601f168201915b5050505050908060010180546104bf90610ad7565b80601f01602080910402602001604051908101604052809291908181526020018280546104eb90610ad7565b80156105365780601f1061050d57610100808354040283529160200191610536565b820191905f5260205f20905b81548152906001019060200180831161051957829003601f168201915b50505050509080600201805461054b90610ad7565b80601f016020809104026020016040519081016040528092919081815260200182805461057790610ad7565b80156105c25780601f10610599576101008083540402835291602001916105c2565b820191905f5260205f20905b8154815290600101906020018083116105a557829003601f168201915b505050505090806003015f9054906101000a900460ff16908060030160019054906101000a900473ffffffffffffffffffffffffffffffffffffffff16905085565b60015f9054906101000a900473ffffffffffffffffffffffffffffffffffffffff1681565b5f604051905090565b5f80fd5b5f80fd5b5f73ffffffffffffffffffffffffffffffffffffffff82169050919050565b5f6106638261063a565b9050919050565b61067381610659565b811461067d575f80fd5b50565b5f8135905061068e8161066a565b92915050565b5f602082840312156106a9576106a8610632565b5b5f6106b684828501610680565b91505092915050565b5f8115159050919050565b6106d3816106bf565b82525050565b5f6020820190506106ec5f8301846106ca565b92915050565b6106fb816106bf565b8114610705575f80fd5b50565b5f81359050610716816106f2565b92915050565b5f806040838503121561073257610731610632565b5b5f61073f85828601610680565b925050602061075085828601610708565b9150509250929050565b5f80fd5b5f80fd5b5f601f19601f8301169050919050565b7f4e487b71000000000000000000000000000000000000000000000000000000005f52604160045260245ffd5b6107a882610762565b810181811067ffffffffffffffff821117156107c7576107c6610772565b5b80604052505050565b5f6107d9610629565b90506107e5828261079f565b919050565b5f67ffffffffffffffff82111561080457610803610772565b5b61080d82610762565b9050602081019050919050565b828183375f83830152505050565b5f61083a610835846107ea565b6107d0565b9050828152602081018484840111156108565761085561075e565b5b61086184828561081a565b509392505050565b5f82601f83011261087d5761087c61075a565b5b813561088d848260208601610828565b91505092915050565b5f805f606084860312156108ad576108ac610632565b5b5f84013567ffffffffffffffff8111156108ca576108c9610636565b5b6108d686828701610869565b935050602084013567ffffffffffffffff8111156108f7576108f6610636565b5b61090386828701610869565b925050604084013567ffffffffffffffff81111561092457610923610636565b5b61093086828701610869565b9150509250925092565b5f81519050919050565b5f82825260208201905092915050565b5f5b83811015610971578082015181840152602081019050610956565b5f8484015250505050565b5f6109868261093a565b6109908185610944565b93506109a0818560208601610954565b6109a981610762565b840191505092915050565b6109bd81610659565b82525050565b5f60a0820190508181035f8301526109db818861097c565b905081810360208301526109ef818761097c565b90508181036040830152610a03818661097c565b9050610a1260608301856106ca565b610a1f60808301846109b4565b9695505050505050565b5f602082019050610a3c5f8301846109b4565b92915050565b7f4f6e6c792061646d696e2063616e2076657269667920646f63746f72730000005f82015250565b5f610a76601d83610944565b9150610a8182610a42565b602082019050919050565b5f6020820190508181035f830152610aa381610a6a565b9050919050565b7f4e487b71000000000000000000000000000000000000000000000000000000005f52602260045260245ffd5b5f6002820490506001821680610aee57607f821691505b602082108103610b0157610b00610aaa565b5b50919050565b5f819050815f5260205f209050919050565b5f6020601f8301049050919050565b5f82821b905092915050565b5f60088302610b637fffffffffffffffffffffffffffffffffffffffffffffffffffffffffffffffff82610b28565b610b6d8683610b28565b95508019841693508086168417925050509392505050565b5f819050919050565b5f819050919050565b5f610bb1610bac610ba784610b85565b610b8e565b610b85565b9050919050565b5f819050919050565b610bca83610b97565b610bde610bd682610bb8565b848454610b34565b825550505050565b5f90565b610bf2610be6565b610bfd818484610bc1565b505050565b5b81811015610c2057610c155f82610bea565b600181019050610c03565b5050565b601f821115610c6557610c3681610b07565b610c3f84610b19565b81016020851015610c4e578190505b610c62610c5a85610b19565b830182610c02565b50505b505050565b5f82821c905092915050565b5f610c855f1984600802610c6a565b1980831691505092915050565b5f610c9d8383610c76565b9150826002028217905092915050565b610cb68261093a565b67ffffffffffffffff811115610ccf57610cce610772565b5b610cd98254610ad7565b610ce4828285610c24565b5f60209050601f831160018114610d15575f8415610d03578287015190505b610d0d8582610c92565b865550610d74565b601f198416610d2386610b07565b5f5b82811015610d4a57848901518255600182019150602085019450602081019050610d25565b86831015610d675784890151610d63601f891682610c76565b8355505b6001600288020188555050505b505050505050565b5f6020820190508181035f830152610d94818461097c565b90509291505056fea264697066735822122078bec0cdbd632ce3386f4012859de38b20b86aa8bad3c5ede2b6d444255565b964736f6c63430008140033",
  "immutableReferences": {},
  "source": "pragma solidity ^0.8.0;\r\n\r\ncontract DoctorVerification {\r\n    struct Doctor {\r\n        string name;\r\n        string specialization;\r\n        string certificateHash; \r\n        bool verified;\r\n        address doctorAddress;\r\n    }\r\n\r\n    mapping(address => Doctor) public doctors;\r\n    address public admin;\r\n\r\n    event DoctorRegistered(address indexed doctor, string name);\r\n    event DoctorVerified(address indexed doctor, bool verified);\r\n\r\n    constructor() {\r\n        admin = msg.sender;\r\n    }\r\n\r\n    function registerDoctor(\r\n        string memory _name,\r\n        string memory _specialization,\r\n        string memory _certificateHash\r\n    ) public {\r\n        doctors[msg.sender] = Doctor({\r\n            name: _name,\r\n            specialization: _specialization,\r\n            certificateHash: _certificateHash,\r\n            verified: false,\r\n            doctorAddress: msg.sender\r\n        });\r\n        emit DoctorRegistered(msg.sender, _name);\r\n    }\r\n\r\n    function verifyDoctor(address _doctor, bool _status) public {\r\n        require(msg.sender == admin, \"Only admin can verify doctors\");\r\n        doctors[_doctor].verified = _status;\r\n        emit DoctorVerified(_doctor, _status);\r\n    }\r\n\r\n    function isDoctorVerified(address _doctor) public view returns (bool) {\r\n        return doctors[_doctor].verified;\r\n    }\r\n}\r\n",
  "sourcePath": "D:\\medical-consultation\\blockchain\\contracts\\DoctorVerification.sol",
  "compiler": {
    "name": "solc",
    "version": "0.8.20+commit.a1b79de6.Emscripten.clang"
  },
  "schemaVersion": "3.4.16",
  "updatedAt": "2025-10-18T11:04:40.315Z",
  "devdoc": {
    "kind": "dev",
    "methods": {},
    "version": 1
  },
  "userdoc": {
    "kind": "user",
    "methods": {},
    "version": 1
  }
}