{
  "contractName": "MedRecord",
  "abi": [
    {
      "anonymous": false,
      "inputs": [
        {
          "indexed": false,
          "internalType": "string",
          "name": "patientId",
          "type": "string"
        },
        {
          "indexed": false,
          "internalType": "address",
          "name": "doctor",
          "type": "address"
        },
        {
          "indexed": false,
          "internalType": "string",
          "name": "ipfsHash",
          "type": "string"
        },
        {
          "indexed": false,
          "internalType": "uint256",
          "name": "timestamp",
          "type": "uint256"
        }
      ],
      "name": "RecordAdded",
      "type": "event"
    },
    {
      "inputs": [
        {
          "internalType": "string",
          "name": "_patientId",
          "type": "string"
        },
        {
          "internalType": "string",
          "name": "_ipfsHash",
          "type": "string"
        }
      ],
      "name": "addRecord",
      "outputs": [],
      "stateMutability": "nonpayable",
      "type": "function"
    },
    {
      "inputs": [
        {
          "internalType": "string",
          "name": "_patientId",
          "type": "string"
        }
      ],
      "name": "getRecords",
      "outputs": [
        {
          "components": [
            {
              "internalType": "string",
              "name": "patientId",
              "type": "string"
            },
            {
              "internalType": "string",
              "name": "ipfsHash",
              "type": "string"
            },
            {
              "internalType": "address",
              "name": "doctor",
              "type": "address"
            },
            {
              "internalType": "uint256",
              "name": "timestamp",
              "type": "uint256"
            }
          ],
          "internalType": "struct MedRecord.Record[]",
          "name": "",
          "type": "tuple[]"
        }
      ],
      "stateMutability": "view",
      "type": "function"
    }
  ],
  "bytecode": "0x608060405234801561000f575f80fd5b50610bda8061001d5f395ff3fe608060405234801561000f575f80fd5b5060043610610034575f3560e01c806386e80b7114610038578063c959624814610068575b5f80fd5b610052600480360381019061004d9190610504565b610084565b60405161005f919061073e565b60405180910390f35b610082600480360381019061007d919061075e565b61027b565b005b60605f82604051610095919061080e565b9081526020016040518091039020805480602002602001604051908101604052809291908181526020015f905b82821015610270578382905f5260205f2090600402016040518060800160405290815f820180546100f290610851565b80601f016020809104026020016040519081016040528092919081815260200182805461011e90610851565b80156101695780601f1061014057610100808354040283529160200191610169565b820191905f5260205f20905b81548152906001019060200180831161014c57829003601f168201915b5050505050815260200160018201805461018290610851565b80601f01602080910402602001604051908101604052809291908181526020018280546101ae90610851565b80156101f95780601f106101d0576101008083540402835291602001916101f9565b820191905f5260205f20905b8154815290600101906020018083116101dc57829003601f168201915b50505050508152602001600282015f9054906101000a900473ffffffffffffffffffffffffffffffffffffffff1673ffffffffffffffffffffffffffffffffffffffff1673ffffffffffffffffffffffffffffffffffffffff168152602001600382015481525050815260200190600101906100c2565b505050509050919050565b5f60405180608001604052808481526020018381526020013373ffffffffffffffffffffffffffffffffffffffff1681526020014281525090505f836040516102c4919061080e565b908152602001604051809103902081908060018154018082558091505060019003905f5260205f2090600402015f909190919091505f820151815f01908161030c9190610a1e565b5060208201518160010190816103229190610a1e565b506040820151816002015f6101000a81548173ffffffffffffffffffffffffffffffffffffffff021916908373ffffffffffffffffffffffffffffffffffffffff1602179055506060820151816003015550507f6ab2ce4a47bf01ae08a862a18f5e8b1faf85f05c105bbb0298a7c831859da5e3833384426040516103aa9493929190610b53565b60405180910390a1505050565b5f604051905090565b5f80fd5b5f80fd5b5f80fd5b5f80fd5b5f601f19601f8301169050919050565b7f4e487b71000000000000000000000000000000000000000000000000000000005f52604160045260245ffd5b610416826103d0565b810181811067ffffffffffffffff82111715610435576104346103e0565b5b80604052505050565b5f6104476103b7565b9050610453828261040d565b919050565b5f67ffffffffffffffff821115610472576104716103e0565b5b61047b826103d0565b9050602081019050919050565b828183375f83830152505050565b5f6104a86104a384610458565b61043e565b9050828152602081018484840111156104c4576104c36103cc565b5b6104cf848285610488565b509392505050565b5f82601f8301126104eb576104ea6103c8565b5b81356104fb848260208601610496565b91505092915050565b5f60208284031215610519576105186103c0565b5b5f82013567ffffffffffffffff811115610536576105356103c4565b5b610542848285016104d7565b91505092915050565b5f81519050919050565b5f82825260208201905092915050565b5f819050602082019050919050565b5f81519050919050565b5f82825260208201905092915050565b5f5b838110156105ab578082015181840152602081019050610590565b5f8484015250505050565b5f6105c082610574565b6105ca818561057e565b93506105da81856020860161058e565b6105e3816103d0565b840191505092915050565b5f73ffffffffffffffffffffffffffffffffffffffff82169050919050565b5f610617826105ee565b9050919050565b6106278161060d565b82525050565b5f819050919050565b61063f8161062d565b82525050565b5f608083015f8301518482035f86015261065f82826105b6565b9150506020830151848203602086015261067982826105b6565b915050604083015161068e604086018261061e565b5060608301516106a16060860182610636565b508091505092915050565b5f6106b78383610645565b905092915050565b5f602082019050919050565b5f6106d58261054b565b6106df8185610555565b9350836020820285016106f185610565565b805f5b8581101561072c578484038952815161070d85826106ac565b9450610718836106bf565b925060208a019950506001810190506106f4565b50829750879550505050505092915050565b5f6020820190508181035f83015261075681846106cb565b905092915050565b5f8060408385031215610774576107736103c0565b5b5f83013567ffffffffffffffff811115610791576107906103c4565b5b61079d858286016104d7565b925050602083013567ffffffffffffffff8111156107be576107bd6103c4565b5b6107ca858286016104d7565b9150509250929050565b5f81905092915050565b5f6107e882610574565b6107f281856107d4565b935061080281856020860161058e565b80840191505092915050565b5f61081982846107de565b915081905092915050565b7f4e487b71000000000000000000000000000000000000000000000000000000005f52602260045260245ffd5b5f600282049050600182168061086857607f821691505b60208210810361087b5761087a610824565b5b50919050565b5f819050815f5260205f209050919050565b5f6020601f8301049050919050565b5f82821b905092915050565b5f600883026108dd7fffffffffffffffffffffffffffffffffffffffffffffffffffffffffffffffff826108a2565b6108e786836108a2565b95508019841693508086168417925050509392505050565b5f819050919050565b5f61092261091d6109188461062d565b6108ff565b61062d565b9050919050565b5f819050919050565b61093b83610908565b61094f61094782610929565b8484546108ae565b825550505050565b5f90565b610963610957565b61096e818484610932565b505050565b5b81811015610991576109865f8261095b565b600181019050610974565b5050565b601f8211156109d6576109a781610881565b6109b084610893565b810160208510156109bf578190505b6109d36109cb85610893565b830182610973565b50505b505050565b5f82821c905092915050565b5f6109f65f19846008026109db565b1980831691505092915050565b5f610a0e83836109e7565b9150826002028217905092915050565b610a2782610574565b67ffffffffffffffff811115610a4057610a3f6103e0565b5b610a4a8254610851565b610a55828285610995565b5f60209050601f831160018114610a86575f8415610a74578287015190505b610a7e8582610a03565b865550610ae5565b601f198416610a9486610881565b5f5b82811015610abb57848901518255600182019150602085019450602081019050610a96565b86831015610ad85784890151610ad4601f8916826109e7565b8355505b6001600288020188555050505b505050505050565b5f82825260208201905092915050565b5f610b0782610574565b610b118185610aed565b9350610b2181856020860161058e565b610b2a816103d0565b840191505092915050565b610b3e8161060d565b82525050565b610b4d8161062d565b82525050565b5f6080820190508181035f830152610b6b8187610afd565b9050610b7a6020830186610b35565b8181036040830152610b8c8185610afd565b9050610b9b6060830184610b44565b9594505050505056fea26469706673582212202c63c810407605c89a553a53c1d51cf31e6ee9247e41a6a2eba06a25e00129ef64736f6c63430008140033",
  "immutableReferences": {},
  "source": "pragma solidity ^0.8.0;\r\n\r\ncontract MedRecord {\r\n    struct Record {\r\n        string patientId;\r\n        string ipfsHash;   \r\n        address doctor;\r\n        uint timestamp;\r\n    }\r\n\r\n    mapping(string => Record[]) private records;\r\n\r\n    event RecordAdded(string patientId, address doctor, string ipfsHash, uint timestamp);\r\n\r\n    function addRecord(string memory _patientId, string memory _ipfsHash) public {\r\n        Record memory newRecord = Record({\r\n            patientId: _patientId,\r\n            ipfsHash: _ipfsHash,\r\n            doctor: msg.sender,\r\n            timestamp: block.timestamp\r\n        });\r\n\r\n        records[_patientId].push(newRecord);\r\n        emit RecordAdded(_patientId, msg.sender, _ipfsHash, block.timestamp);\r\n    }\r\n\r\n    function getRecords(string memory _patientId) public view returns (Record[] memory) {\r\n        return records[_patientId];\r\n    }\r\n}\r\n",
  "sourcePath": "D:\\medical-consultation\\blockchain\\contracts\\MedRecord.sol",
  "compiler": {
    "name": "solc",
    "version": "0.8.20+commit.a1b79de6.Emscripten.clang"
  },
  "schemaVersion": "3.4.16",
  "updatedAt": "2025-10-18T11:04:40.325Z",
  "devdoc": {
    "kind": "dev",
    "methods": {},
    "version": 1
  },
  "userdoc": {
    "kind": "user",
    "methods": {},
    "version": 1
  }
}